{
  "_format": "hh-sol-artifact-1",
  "contractName": "BankAccount",
  "sourceName": "contracts/BankAccount.sol",
  "abi": [
    {
      "anonymous": false,
      "inputs": [
        {
          "indexed": false,
          "internalType": "address[]",
          "name": "owners",
          "type": "address[]"
        },
        {
          "indexed": true,
          "internalType": "uint256",
          "name": "id",
          "type": "uint256"
        },
        {
          "indexed": false,
          "internalType": "uint256",
          "name": "timestamp",
          "type": "uint256"
        }
      ],
      "name": "AccountCreated",
      "type": "event"
    },
    {
      "anonymous": false,
      "inputs": [
        {
          "indexed": true,
          "internalType": "address",
          "name": "user",
          "type": "address"
        },
        {
          "indexed": true,
          "internalType": "uint256",
          "name": "accountId",
          "type": "uint256"
        },
        {
          "indexed": false,
          "internalType": "uint256",
          "name": "value",
          "type": "uint256"
        },
        {
          "indexed": false,
          "internalType": "uint256",
          "name": "timestamp",
          "type": "uint256"
        }
      ],
      "name": "Deposit",
      "type": "event"
    },
    {
      "anonymous": false,
      "inputs": [
        {
          "indexed": true,
          "internalType": "uint256",
          "name": "withrawId",
          "type": "uint256"
        },
        {
          "indexed": false,
          "internalType": "uint256",
          "name": "timestamp",
          "type": "uint256"
        }
      ],
      "name": "Withdraw",
      "type": "event"
    },
    {
      "anonymous": false,
      "inputs": [
        {
          "indexed": true,
          "internalType": "address",
          "name": "user",
          "type": "address"
        },
        {
          "indexed": true,
          "internalType": "uint256",
          "name": "accountId",
          "type": "uint256"
        },
        {
          "indexed": true,
          "internalType": "uint256",
          "name": "withrawId",
          "type": "uint256"
        },
        {
          "indexed": false,
          "internalType": "uint256",
          "name": "amount",
          "type": "uint256"
        },
        {
          "indexed": false,
          "internalType": "uint256",
          "name": "timestamp",
          "type": "uint256"
        }
      ],
      "name": "WithdrawRequested",
      "type": "event"
    },
    {
      "inputs": [
        {
          "internalType": "uint256",
          "name": "accountId",
          "type": "uint256"
        },
        {
          "internalType": "uint256",
          "name": "withdrawId",
          "type": "uint256"
        }
      ],
      "name": "approveWithdrawl",
      "outputs": [],
      "stateMutability": "nonpayable",
      "type": "function"
    },
    {
      "inputs": [
        {
          "internalType": "address[]",
          "name": "otherOwners",
          "type": "address[]"
        }
      ],
      "name": "createAccount",
      "outputs": [],
      "stateMutability": "nonpayable",
      "type": "function"
    },
    {
      "inputs": [
        {
          "internalType": "uint256",
          "name": "accountId",
          "type": "uint256"
        }
      ],
      "name": "deposit",
      "outputs": [],
      "stateMutability": "payable",
      "type": "function"
    },
    {
      "inputs": [],
      "name": "getAccounts",
      "outputs": [
        {
          "internalType": "uint256[]",
          "name": "",
          "type": "uint256[]"
        }
      ],
      "stateMutability": "view",
      "type": "function"
    },
    {
      "inputs": [
        {
          "internalType": "uint256",
          "name": "accountId",
          "type": "uint256"
        },
        {
          "internalType": "uint256",
          "name": "withdrawId",
          "type": "uint256"
        }
      ],
      "name": "getApprovals",
      "outputs": [
        {
          "internalType": "uint256",
          "name": "",
          "type": "uint256"
        }
      ],
      "stateMutability": "view",
      "type": "function"
    },
    {
      "inputs": [
        {
          "internalType": "uint256",
          "name": "accountId",
          "type": "uint256"
        }
      ],
      "name": "getBalance",
      "outputs": [
        {
          "internalType": "uint256",
          "name": "",
          "type": "uint256"
        }
      ],
      "stateMutability": "view",
      "type": "function"
    },
    {
      "inputs": [
        {
          "internalType": "uint256",
          "name": "accountId",
          "type": "uint256"
        }
      ],
      "name": "getOwners",
      "outputs": [
        {
          "internalType": "address[]",
          "name": "",
          "type": "address[]"
        }
      ],
      "stateMutability": "view",
      "type": "function"
    },
    {
      "inputs": [
        {
          "internalType": "uint256",
          "name": "accountId",
          "type": "uint256"
        },
        {
          "internalType": "uint256",
          "name": "amount",
          "type": "uint256"
        }
      ],
      "name": "requestWithdrawl",
      "outputs": [],
      "stateMutability": "nonpayable",
      "type": "function"
    },
    {
      "inputs": [
        {
          "internalType": "uint256",
          "name": "accountId",
          "type": "uint256"
        },
        {
          "internalType": "uint256",
          "name": "withdrawId",
          "type": "uint256"
        }
      ],
      "name": "withdraw",
      "outputs": [],
      "stateMutability": "nonpayable",
      "type": "function"
    }
  ],
  "bytecode": "0x608060405234801561001057600080fd5b50611f91806100206000396000f3fe6080604052600436106100865760003560e01c80638a48ac03116100595780638a48ac0314610157578063a52a6f9a14610182578063b6b55f25146101ab578063ee4525d5146101c7578063eff634331461020457610086565b80631e0104391461008b578063441a3e70146100c8578063785e5531146100f1578063867275a51461011a575b600080fd5b34801561009757600080fd5b506100b260048036038101906100ad91906114c4565b61022d565b6040516100bf9190611500565b60405180910390f35b3480156100d457600080fd5b506100ef60048036038101906100ea919061151b565b61024c565b005b3480156100fd57600080fd5b506101186004803603810190610113919061151b565b610557565b005b34801561012657600080fd5b50610141600480360381019061013c919061151b565b6109ed565b60405161014e9190611500565b60405180910390f35b34801561016357600080fd5b5061016c610a21565b6040516101799190611619565b60405180910390f35b34801561018e57600080fd5b506101a960048036038101906101a4919061151b565b610ab6565b005b6101c560048036038101906101c091906114c4565b610d07565b005b3480156101d357600080fd5b506101ee60048036038101906101e991906114c4565b610e3e565b6040516101fb919061172b565b60405180910390f35b34801561021057600080fd5b5061022b600480360381019061022691906117b2565b610ee1565b005b6000806000838152602001908152602001600020600101549050919050565b81813373ffffffffffffffffffffffffffffffffffffffff16600080848152602001908152602001600020600201600083815260200190815260200160002060000160009054906101000a900473ffffffffffffffffffffffffffffffffffffffff1673ffffffffffffffffffffffffffffffffffffffff1614610305576040517f08c379a00000000000000000000000000000000000000000000000000000000081526004016102fc9061185c565b60405180910390fd5b600080838152602001908152602001600020600201600082815260200190815260200160002060040160009054906101000a900460ff1661037b576040517f08c379a0000000000000000000000000000000000000000000000000000000008152600401610372906118c8565b60405180910390fd5b6000806000868152602001908152602001600020600201600085815260200190815260200160002060010154905080600080878152602001908152602001600020600101541015610401576040517f08c379a00000000000000000000000000000000000000000000000000000000081526004016103f890611934565b60405180910390fd5b8060008087815260200190815260200160002060010160008282546104269190611983565b925050819055506000808681526020019081526020016000206002016000858152602001908152602001600020600080820160006101000a81549073ffffffffffffffffffffffffffffffffffffffff0219169055600182016000905560028201600090556004820160006101000a81549060ff0219169055505060003373ffffffffffffffffffffffffffffffffffffffff16826040516104c7906119e8565b60006040518083038185875af1925050503d8060008114610504576040519150601f19603f3d011682016040523d82523d6000602084013e610509565b606091505b505090508061051757600080fd5b847f56ca301a9219608c91e7bcee90e083c19671d2cdcc96752c7af291cee5f9c8c8426040516105479190611500565b60405180910390a2505050505050565b816000805b6000808481526020019081526020016000206000018054905081101561061c573373ffffffffffffffffffffffffffffffffffffffff1660008085815260200190815260200160002060000182815481106105ba576105b96119fd565b5b9060005260206000200160009054906101000a900473ffffffffffffffffffffffffffffffffffffffff1673ffffffffffffffffffffffffffffffffffffffff1603610609576001915061061c565b808061061490611a2c565b91505061055c565b508061065d576040517f08c379a000000000000000000000000000000000000000000000000000000000815260040161065490611ae6565b60405180910390fd5b8383600080838152602001908152602001600020600201600082815260200190815260200160002060040160009054906101000a900460ff16156106d6576040517f08c379a00000000000000000000000000000000000000000000000000000000081526004016106cd90611b52565b60405180910390fd5b3373ffffffffffffffffffffffffffffffffffffffff16600080848152602001908152602001600020600201600083815260200190815260200160002060000160009054906101000a900473ffffffffffffffffffffffffffffffffffffffff1673ffffffffffffffffffffffffffffffffffffffff160361078d576040517f08c379a000000000000000000000000000000000000000000000000000000000815260040161078490611bbe565b60405180910390fd5b600073ffffffffffffffffffffffffffffffffffffffff16600080848152602001908152602001600020600201600083815260200190815260200160002060000160009054906101000a900473ffffffffffffffffffffffffffffffffffffffff1673ffffffffffffffffffffffffffffffffffffffff1603610845576040517f08c379a000000000000000000000000000000000000000000000000000000000815260040161083c90611c2a565b60405180910390fd5b600080838152602001908152602001600020600201600082815260200190815260200160002060030160003373ffffffffffffffffffffffffffffffffffffffff1673ffffffffffffffffffffffffffffffffffffffff16815260200190815260200160002060009054906101000a900460ff16156108f9576040517f08c379a00000000000000000000000000000000000000000000000000000000081526004016108f090611cbc565b60405180910390fd5b60008060008881526020019081526020016000206002016000878152602001908152602001600020905080600201600081548092919061093890611a2c565b919050555060018160030160003373ffffffffffffffffffffffffffffffffffffffff1673ffffffffffffffffffffffffffffffffffffffff16815260200190815260200160002060006101000a81548160ff0219169083151502179055506001600080898152602001908152602001600020600001805490506109bc9190611983565b8160020154036109e45760018160040160006101000a81548160ff0219169083151502179055505b50505050505050565b6000806000848152602001908152602001600020600201600083815260200190815260200160002060020154905092915050565b6060600160003373ffffffffffffffffffffffffffffffffffffffff1673ffffffffffffffffffffffffffffffffffffffff168152602001908152602001600020805480602002602001604051908101604052809291908181526020018280548015610aac57602002820191906000526020600020905b815481526020019060010190808311610a98575b5050505050905090565b816000805b60008084815260200190815260200160002060000180549050811015610b7b573373ffffffffffffffffffffffffffffffffffffffff166000808581526020019081526020016000206000018281548110610b1957610b186119fd565b5b9060005260206000200160009054906101000a900473ffffffffffffffffffffffffffffffffffffffff1673ffffffffffffffffffffffffffffffffffffffff1603610b685760019150610b7b565b8080610b7390611a2c565b915050610abb565b5080610bbc576040517f08c379a0000000000000000000000000000000000000000000000000000000008152600401610bb390611ae6565b60405180910390fd5b838380600080848152602001908152602001600020600101541015610c16576040517f08c379a0000000000000000000000000000000000000000000000000000000008152600401610c0d90611934565b60405180910390fd5b60006003549050600080600089815260200190815260200160002060020160008381526020019081526020016000209050338160000160006101000a81548173ffffffffffffffffffffffffffffffffffffffff021916908373ffffffffffffffffffffffffffffffffffffffff16021790555086816001018190555060036000815480929190610ca690611a2c565b919050555081883373ffffffffffffffffffffffffffffffffffffffff167f1f0d204a59639d21245dbaa239dfc9a6227aa86cb614bdda19843c52d155fcfa8a42604051610cf5929190611cdc565b60405180910390a45050505050505050565b806000805b60008084815260200190815260200160002060000180549050811015610dcc573373ffffffffffffffffffffffffffffffffffffffff166000808581526020019081526020016000206000018281548110610d6a57610d696119fd565b5b9060005260206000200160009054906101000a900473ffffffffffffffffffffffffffffffffffffffff1673ffffffffffffffffffffffffffffffffffffffff1603610db95760019150610dcc565b8080610dc490611a2c565b915050610d0c565b5080610e0d576040517f08c379a0000000000000000000000000000000000000000000000000000000008152600401610e0490611ae6565b60405180910390fd5b346000808581526020019081526020016000206001016000828254610e329190611d05565b92505081905550505050565b6060600080838152602001908152602001600020600001805480602002602001604051908101604052809291908181526020018280548015610ed557602002820191906000526020600020905b8160009054906101000a900473ffffffffffffffffffffffffffffffffffffffff1673ffffffffffffffffffffffffffffffffffffffff1681526020019060010190808311610e8b575b50505050509050919050565b81816004600183839050610ef59190611d05565b1115610f36576040517f08c379a0000000000000000000000000000000000000000000000000000000008152600401610f2d90611d85565b60405180910390fd5b60005b828290508110156110d9573373ffffffffffffffffffffffffffffffffffffffff16838383818110610f6e57610f6d6119fd565b5b9050602002016020810190610f839190611dd1565b73ffffffffffffffffffffffffffffffffffffffff1603610fd9576040517f08c379a0000000000000000000000000000000000000000000000000000000008152600401610fd090611e4a565b60405180910390fd5b6000600182610fe89190611d05565b90505b838390508110156110c557838382818110611009576110086119fd565b5b905060200201602081019061101e9190611dd1565b73ffffffffffffffffffffffffffffffffffffffff16848484818110611047576110466119fd565b5b905060200201602081019061105c9190611dd1565b73ffffffffffffffffffffffffffffffffffffffff16036110b2576040517f08c379a00000000000000000000000000000000000000000000000000000000081526004016110a990611e4a565b60405180910390fd5b80806110bd90611a2c565b915050610feb565b5080806110d190611a2c565b915050610f39565b5060006001858590506110ec9190611d05565b67ffffffffffffffff81111561110557611104611e6a565b5b6040519080825280602002602001820160405280156111335781602001602082028036833780820191505090505b5090503381868690508151811061114d5761114c6119fd565b5b602002602001019073ffffffffffffffffffffffffffffffffffffffff16908173ffffffffffffffffffffffffffffffffffffffff16815250506000600254905060005b825181101561135857600183516111a89190611983565b811015611225578686828181106111c2576111c16119fd565b5b90506020020160208101906111d79190611dd1565b8382815181106111ea576111e96119fd565b5b602002602001019073ffffffffffffffffffffffffffffffffffffffff16908173ffffffffffffffffffffffffffffffffffffffff16815250505b60026001600085848151811061123e5761123d6119fd565b5b602002602001015173ffffffffffffffffffffffffffffffffffffffff1673ffffffffffffffffffffffffffffffffffffffff1681526020019081526020016000208054905011156112c5576040517f08c379a00000000000000000000000000000000000000000000000000000000081526004016112bc90611f0b565b60405180910390fd5b600160008483815181106112dc576112db6119fd565b5b602002602001015173ffffffffffffffffffffffffffffffffffffffff1673ffffffffffffffffffffffffffffffffffffffff168152602001908152602001600020829080600181540180825580915050600190039060005260206000200160009091909190915055808061135090611a2c565b915050611191565b508160008083815260200190815260200160002060000190805190602001906113829291906113dd565b506002600081548092919061139690611a2c565b9190505550807f1dfea57c7217d8ee2ef44253419f3a05acdf0e6dea69f12e9e2afa2e748e3c8c83426040516113cd929190611f2b565b60405180910390a2505050505050565b828054828255906000526020600020908101928215611456579160200282015b828111156114555782518260006101000a81548173ffffffffffffffffffffffffffffffffffffffff021916908373ffffffffffffffffffffffffffffffffffffffff160217905550916020019190600101906113fd565b5b5090506114639190611467565b5090565b5b80821115611480576000816000905550600101611468565b5090565b600080fd5b600080fd5b6000819050919050565b6114a18161148e565b81146114ac57600080fd5b50565b6000813590506114be81611498565b92915050565b6000602082840312156114da576114d9611484565b5b60006114e8848285016114af565b91505092915050565b6114fa8161148e565b82525050565b600060208201905061151560008301846114f1565b92915050565b6000806040838503121561153257611531611484565b5b6000611540858286016114af565b9250506020611551858286016114af565b9150509250929050565b600081519050919050565b600082825260208201905092915050565b6000819050602082019050919050565b6115908161148e565b82525050565b60006115a28383611587565b60208301905092915050565b6000602082019050919050565b60006115c68261155b565b6115d08185611566565b93506115db83611577565b8060005b8381101561160c5781516115f38882611596565b97506115fe836115ae565b9250506001810190506115df565b5085935050505092915050565b6000602082019050818103600083015261163381846115bb565b905092915050565b600081519050919050565b600082825260208201905092915050565b6000819050602082019050919050565b600073ffffffffffffffffffffffffffffffffffffffff82169050919050565b600061169282611667565b9050919050565b6116a281611687565b82525050565b60006116b48383611699565b60208301905092915050565b6000602082019050919050565b60006116d88261163b565b6116e28185611646565b93506116ed83611657565b8060005b8381101561171e57815161170588826116a8565b9750611710836116c0565b9250506001810190506116f1565b5085935050505092915050565b6000602082019050818103600083015261174581846116cd565b905092915050565b600080fd5b600080fd5b600080fd5b60008083601f8401126117725761177161174d565b5b8235905067ffffffffffffffff81111561178f5761178e611752565b5b6020830191508360208202830111156117ab576117aa611757565b5b9250929050565b600080602083850312156117c9576117c8611484565b5b600083013567ffffffffffffffff8111156117e7576117e6611489565b5b6117f38582860161175c565b92509250509250929050565b600082825260208201905092915050565b7f796f7520646964206e6f74206372656174652074686973207265717565737400600082015250565b6000611846601f836117ff565b915061185182611810565b602082019050919050565b6000602082019050818103600083015261187581611839565b9050919050565b7f746869732072657175657374206973206e6f7420617070726f76656400000000600082015250565b60006118b2601c836117ff565b91506118bd8261187c565b602082019050919050565b600060208201905081810360008301526118e1816118a5565b9050919050565b7f696e73756666696369656e742062616c616e6365000000000000000000000000600082015250565b600061191e6014836117ff565b9150611929826118e8565b602082019050919050565b6000602082019050818103600083015261194d81611911565b9050919050565b7f4e487b7100000000000000000000000000000000000000000000000000000000600052601160045260246000fd5b600061198e8261148e565b91506119998361148e565b92508282039050818111156119b1576119b0611954565b5b92915050565b600081905092915050565b50565b60006119d26000836119b7565b91506119dd826119c2565b600082019050919050565b60006119f3826119c5565b9150819050919050565b7f4e487b7100000000000000000000000000000000000000000000000000000000600052603260045260246000fd5b6000611a378261148e565b91507fffffffffffffffffffffffffffffffffffffffffffffffffffffffffffffffff8203611a6957611a68611954565b5b600182019050919050565b7f796f7520617265206e6f7420616e206f776e6572206f6620746869732061636360008201527f6f756e7400000000000000000000000000000000000000000000000000000000602082015250565b6000611ad06024836117ff565b9150611adb82611a74565b604082019050919050565b60006020820190508181036000830152611aff81611ac3565b9050919050565b7f74686973207265717565737420697320616c726561647920617070726f766564600082015250565b6000611b3c6020836117ff565b9150611b4782611b06565b602082019050919050565b60006020820190508181036000830152611b6b81611b2f565b9050919050565b7f796f752063616e6e6f7420617070726f76652074686973207265717565737400600082015250565b6000611ba8601f836117ff565b9150611bb382611b72565b602082019050919050565b60006020820190508181036000830152611bd781611b9b565b9050919050565b7f74686973207265717565737420646f6573206e6f742065786973740000000000600082015250565b6000611c14601b836117ff565b9150611c1f82611bde565b602082019050919050565b60006020820190508181036000830152611c4381611c07565b9050919050565b7f796f75206861766520616c726561647920617070726f7665642074686973207260008201527f6571756573740000000000000000000000000000000000000000000000000000602082015250565b6000611ca66026836117ff565b9150611cb182611c4a565b604082019050919050565b60006020820190508181036000830152611cd581611c99565b9050919050565b6000604082019050611cf160008301856114f1565b611cfe60208301846114f1565b9392505050565b6000611d108261148e565b9150611d1b8361148e565b9250828201905080821115611d3357611d32611954565b5b92915050565b7f6d6178696d756d206f662034206f776e65727320706572206163636f756e7400600082015250565b6000611d6f601f836117ff565b9150611d7a82611d39565b602082019050919050565b60006020820190508181036000830152611d9e81611d62565b9050919050565b611dae81611687565b8114611db957600080fd5b50565b600081359050611dcb81611da5565b92915050565b600060208284031215611de757611de6611484565b5b6000611df584828501611dbc565b91505092915050565b7f6e6f206475706c6963617465206f776e65727300000000000000000000000000600082015250565b6000611e346013836117ff565b9150611e3f82611dfe565b602082019050919050565b60006020820190508181036000830152611e6381611e27565b9050919050565b7f4e487b7100000000000000000000000000000000000000000000000000000000600052604160045260246000fd5b7f6561636820757365722063616e20686176652061206d6178206f66203320616360008201527f636f756e74730000000000000000000000000000000000000000000000000000602082015250565b6000611ef56026836117ff565b9150611f0082611e99565b604082019050919050565b60006020820190508181036000830152611f2481611ee8565b9050919050565b60006040820190508181036000830152611f4581856116cd565b9050611f5460208301846114f1565b939250505056fea2646970667358221220c239496092b630342b874bedcab62a182ab4f273595ef56c64adc706516ba9d164736f6c63430008100033",
  "linkReferences": {},
  "deployedLinkReferences": {}
}